{
  "address": "0xD173d573c03F1DFb2613fd48A071366A8bb2f6BE",
  "abi": [
    {
      "inputs": [
        {
          "internalType": "uint256",
          "name": "attemptedSpent",
          "type": "uint256"
        },
        {
          "internalType": "uint256",
          "name": "allowedRate",
          "type": "uint256"
        }
      ],
      "name": "BlockBudgetExceeded",
      "type": "error"
    },
    {
      "inputs": [
        {
          "internalType": "uint256",
          "name": "attemptedSpent",
          "type": "uint256"
        },
        {
          "internalType": "uint256",
          "name": "allowedRate",
          "type": "uint256"
        }
      ],
      "name": "DailyBudgetExceeded",
      "type": "error"
    },
    {
      "inputs": [],
      "name": "DelegatecallNotAllowed",
      "type": "error"
    },
    {
      "inputs": [],
      "name": "InvalidInitialization",
      "type": "error"
    },
    {
      "inputs": [],
      "name": "NotInitializing",
      "type": "error"
    },
    {
      "inputs": [],
      "name": "NotMySafe",
      "type": "error"
    },
    {
      "inputs": [
        {
          "internalType": "address",
          "name": "owner",
          "type": "address"
        }
      ],
      "name": "OwnableInvalidOwner",
      "type": "error"
    },
    {
      "inputs": [
        {
          "internalType": "address",
          "name": "account",
          "type": "address"
        }
      ],
      "name": "OwnableUnauthorizedAccount",
      "type": "error"
    },
    {
      "inputs": [
        {
          "internalType": "uint256",
          "name": "attemptedSpent",
          "type": "uint256"
        },
        {
          "internalType": "uint256",
          "name": "allowedRate",
          "type": "uint256"
        }
      ],
      "name": "TotalBudgetExceeded",
      "type": "error"
    },
    {
      "inputs": [
        {
          "internalType": "uint256",
          "name": "attemptedSpent",
          "type": "uint256"
        },
        {
          "internalType": "uint256",
          "name": "allowedRate",
          "type": "uint256"
        },
        {
          "internalType": "bytes32",
          "name": "txHash",
          "type": "bytes32"
        }
      ],
      "name": "TxBudgetExceeded",
      "type": "error"
    },
    {
      "anonymous": false,
      "inputs": [
        {
          "indexed": true,
          "internalType": "address",
          "name": "token",
          "type": "address"
        },
        {
          "indexed": false,
          "internalType": "uint256",
          "name": "inDay",
          "type": "uint256"
        },
        {
          "indexed": false,
          "internalType": "uint256",
          "name": "inBlock",
          "type": "uint256"
        },
        {
          "indexed": false,
          "internalType": "uint256",
          "name": "inTX",
          "type": "uint256"
        },
        {
          "indexed": false,
          "internalType": "uint256",
          "name": "inTotal",
          "type": "uint256"
        }
      ],
      "name": "AssetProtectionUpdated",
      "type": "event"
    },
    {
      "anonymous": false,
      "inputs": [],
      "name": "EIP712DomainChanged",
      "type": "event"
    },
    {
      "anonymous": false,
      "inputs": [
        {
          "indexed": false,
          "internalType": "uint64",
          "name": "version",
          "type": "uint64"
        }
      ],
      "name": "Initialized",
      "type": "event"
    },
    {
      "anonymous": false,
      "inputs": [
        {
          "indexed": true,
          "internalType": "address",
          "name": "previousOwner",
          "type": "address"
        },
        {
          "indexed": true,
          "internalType": "address",
          "name": "newOwner",
          "type": "address"
        }
      ],
      "name": "OwnershipTransferred",
      "type": "event"
    },
    {
      "anonymous": false,
      "inputs": [
        {
          "indexed": true,
          "internalType": "address",
          "name": "asset",
          "type": "address"
        },
        {
          "indexed": true,
          "internalType": "uint256",
          "name": "ETA",
          "type": "uint256"
        },
        {
          "indexed": false,
          "internalType": "uint256",
          "name": "inDay",
          "type": "uint256"
        },
        {
          "indexed": false,
          "internalType": "uint256",
          "name": "inBlock",
          "type": "uint256"
        },
        {
          "indexed": false,
          "internalType": "uint256",
          "name": "inTX",
          "type": "uint256"
        },
        {
          "indexed": false,
          "internalType": "uint256",
          "name": "inTotal",
          "type": "uint256"
        }
      ],
      "name": "ScheduledUpdateAssetProtection",
      "type": "event"
    },
    {
      "anonymous": false,
      "inputs": [
        {
          "indexed": true,
          "internalType": "uint256",
          "name": "timestamp",
          "type": "uint256"
        },
        {
          "indexed": true,
          "internalType": "uint256",
          "name": "newTTL",
          "type": "uint256"
        },
        {
          "indexed": true,
          "internalType": "uint256",
          "name": "ETA",
          "type": "uint256"
        }
      ],
      "name": "ScheduledUpdateTTLSet",
      "type": "event"
    },
    {
      "anonymous": false,
      "inputs": [
        {
          "indexed": false,
          "internalType": "uint256",
          "name": "oldTTL",
          "type": "uint256"
        },
        {
          "indexed": false,
          "internalType": "uint256",
          "name": "newTTL",
          "type": "uint256"
        }
      ],
      "name": "TTLSet",
      "type": "event"
    },
    {
      "anonymous": false,
      "inputs": [
        {
          "indexed": true,
          "internalType": "bytes32",
          "name": "txHash",
          "type": "bytes32"
        },
        {
          "indexed": true,
          "internalType": "uint256",
          "name": "createdAt",
          "type": "uint256"
        }
      ],
      "name": "TxApproved",
      "type": "event"
    },
    {
      "inputs": [],
      "name": "STORAGE_SLOT",
      "outputs": [
        {
          "internalType": "bytes32",
          "name": "",
          "type": "bytes32"
        }
      ],
      "stateMutability": "view",
      "type": "function"
    },
    {
      "inputs": [
        {
          "internalType": "address",
          "name": "asset",
          "type": "address"
        },
        {
          "components": [
            {
              "internalType": "uint256",
              "name": "inDay",
              "type": "uint256"
            },
            {
              "internalType": "uint256",
              "name": "inBlock",
              "type": "uint256"
            },
            {
              "internalType": "uint256",
              "name": "inTX",
              "type": "uint256"
            },
            {
              "internalType": "uint256",
              "name": "inTotal",
              "type": "uint256"
            }
          ],
          "internalType": "struct Policy",
          "name": "policy",
          "type": "tuple"
        }
      ],
      "name": "addProtectedAsset",
      "outputs": [],
      "stateMutability": "nonpayable",
      "type": "function"
    },
    {
      "inputs": [
        {
          "internalType": "bytes32",
          "name": "txHash",
          "type": "bytes32"
        },
        {
          "internalType": "bool",
          "name": "",
          "type": "bool"
        }
      ],
      "name": "checkAfterExecution",
      "outputs": [],
      "stateMutability": "nonpayable",
      "type": "function"
    },
    {
      "inputs": [
        {
          "internalType": "address",
          "name": "",
          "type": "address"
        },
        {
          "internalType": "uint256",
          "name": "",
          "type": "uint256"
        },
        {
          "internalType": "bytes",
          "name": "",
          "type": "bytes"
        },
        {
          "internalType": "uint8",
          "name": "operation",
          "type": "uint8"
        },
        {
          "internalType": "uint256",
          "name": "",
          "type": "uint256"
        },
        {
          "internalType": "uint256",
          "name": "",
          "type": "uint256"
        },
        {
          "internalType": "uint256",
          "name": "",
          "type": "uint256"
        },
        {
          "internalType": "address",
          "name": "",
          "type": "address"
        },
        {
          "internalType": "address payable",
          "name": "",
          "type": "address"
        },
        {
          "internalType": "bytes",
          "name": "",
          "type": "bytes"
        },
        {
          "internalType": "address",
          "name": "",
          "type": "address"
        }
      ],
      "name": "checkTransaction",
      "outputs": [],
      "stateMutability": "nonpayable",
      "type": "function"
    },
    {
      "inputs": [],
      "name": "eip712Domain",
      "outputs": [
        {
          "internalType": "bytes1",
          "name": "fields",
          "type": "bytes1"
        },
        {
          "internalType": "string",
          "name": "name",
          "type": "string"
        },
        {
          "internalType": "string",
          "name": "version",
          "type": "string"
        },
        {
          "internalType": "uint256",
          "name": "chainId",
          "type": "uint256"
        },
        {
          "internalType": "address",
          "name": "verifyingContract",
          "type": "address"
        },
        {
          "internalType": "bytes32",
          "name": "salt",
          "type": "bytes32"
        },
        {
          "internalType": "uint256[]",
          "name": "extensions",
          "type": "uint256[]"
        }
      ],
      "stateMutability": "view",
      "type": "function"
    },
    {
      "inputs": [
        {
          "internalType": "address",
          "name": "asset",
          "type": "address"
        }
      ],
      "name": "getAssetPolicy",
      "outputs": [
        {
          "components": [
            {
              "internalType": "uint256",
              "name": "inDay",
              "type": "uint256"
            },
            {
              "internalType": "uint256",
              "name": "inBlock",
              "type": "uint256"
            },
            {
              "internalType": "uint256",
              "name": "inTX",
              "type": "uint256"
            },
            {
              "internalType": "uint256",
              "name": "inTotal",
              "type": "uint256"
            }
          ],
          "internalType": "struct Policy",
          "name": "",
          "type": "tuple"
        }
      ],
      "stateMutability": "view",
      "type": "function"
    },
    {
      "inputs": [],
      "name": "getTTL",
      "outputs": [
        {
          "internalType": "uint256",
          "name": "",
          "type": "uint256"
        }
      ],
      "stateMutability": "view",
      "type": "function"
    },
    {
      "inputs": [
        {
          "internalType": "address",
          "name": "_owner",
          "type": "address"
        },
        {
          "internalType": "uint256",
          "name": "_ttl",
          "type": "uint256"
        },
        {
          "internalType": "address",
          "name": "safe",
          "type": "address"
        },
        {
          "internalType": "address[]",
          "name": "assets",
          "type": "address[]"
        },
        {
          "components": [
            {
              "internalType": "uint256",
              "name": "inDay",
              "type": "uint256"
            },
            {
              "internalType": "uint256",
              "name": "inBlock",
              "type": "uint256"
            },
            {
              "internalType": "uint256",
              "name": "inTX",
              "type": "uint256"
            },
            {
              "internalType": "uint256",
              "name": "inTotal",
              "type": "uint256"
            }
          ],
          "internalType": "struct Policy[]",
          "name": "policies",
          "type": "tuple[]"
        }
      ],
      "name": "initialize",
      "outputs": [],
      "stateMutability": "nonpayable",
      "type": "function"
    },
    {
      "inputs": [],
      "name": "owner",
      "outputs": [
        {
          "internalType": "address",
          "name": "",
          "type": "address"
        }
      ],
      "stateMutability": "view",
      "type": "function"
    },
    {
      "inputs": [
        {
          "internalType": "bytes32",
          "name": "txHash",
          "type": "bytes32"
        }
      ],
      "name": "preApproveTx",
      "outputs": [],
      "stateMutability": "nonpayable",
      "type": "function"
    },
    {
      "inputs": [],
      "name": "renounceOwnership",
      "outputs": [],
      "stateMutability": "nonpayable",
      "type": "function"
    },
    {
      "inputs": [
        {
          "internalType": "bytes32",
          "name": "txHash",
          "type": "bytes32"
        }
      ],
      "name": "revokePreApprovedTx",
      "outputs": [],
      "stateMutability": "nonpayable",
      "type": "function"
    },
    {
      "inputs": [
        {
          "internalType": "address",
          "name": "asset",
          "type": "address"
        },
        {
          "components": [
            {
              "internalType": "uint256",
              "name": "inDay",
              "type": "uint256"
            },
            {
              "internalType": "uint256",
              "name": "inBlock",
              "type": "uint256"
            },
            {
              "internalType": "uint256",
              "name": "inTX",
              "type": "uint256"
            },
            {
              "internalType": "uint256",
              "name": "inTotal",
              "type": "uint256"
            }
          ],
          "internalType": "struct Policy",
          "name": "newPolicy",
          "type": "tuple"
        }
      ],
      "name": "schedulePolicyUpdate",
      "outputs": [],
      "stateMutability": "nonpayable",
      "type": "function"
    },
    {
      "inputs": [
        {
          "internalType": "uint256",
          "name": "_ttl",
          "type": "uint256"
        }
      ],
      "name": "scheduleTTLUpdate",
      "outputs": [],
      "stateMutability": "nonpayable",
      "type": "function"
    },
    {
      "inputs": [
        {
          "internalType": "bytes4",
          "name": "interfaceId",
          "type": "bytes4"
        }
      ],
      "name": "supportsInterface",
      "outputs": [
        {
          "internalType": "bool",
          "name": "",
          "type": "bool"
        }
      ],
      "stateMutability": "view",
      "type": "function"
    },
    {
      "inputs": [
        {
          "internalType": "address",
          "name": "newOwner",
          "type": "address"
        }
      ],
      "name": "transferOwnership",
      "outputs": [],
      "stateMutability": "nonpayable",
      "type": "function"
    }
  ],
  "transactionHash": "0x2fcd16dfa19eed867b2b0d02b9f6ada0c68b38c7d4e2f6eb08ac47a62c1e5eff",
  "args": [],
  "numDeployments": 1,
  "solcInputHash": "6e2163a991cff187428e513402a0d579",
  "bytecode": "0x6080604052348015600f57600080fd5b5061203b8061001f6000396000f3fe608060405234801561001057600080fd5b50600436106101005760003560e01c8063715018a61161009757806393271368116100665780639327136814610289578063acbc2a021461029c578063f2fde38b146102af578063f900758b146102c257600080fd5b8063715018a61461021957806375f0bb521461022157806384b0196e146102345780638da5cb5b1461024f57600080fd5b80632d61f6d9116100d35780632d61f6d9146101b95780634ba68d7a146101cc578063517d217e146101df57806362aa49d11461020657600080fd5b806301ffc9a7146101055780631980fa7e1461012d5780632997bcf6146101735780632ce69cbf14610188575b600080fd5b610118610113366004611996565b6102d5565b60405190151581526020015b60405180910390f35b61014061013b3660046119fd565b61036e565b60405161012491908151815260208083015190820152604080830151908201526060918201519181019190915260800190565b610186610181366004611ac4565b610406565b005b7f65a562e555f44f9d648803e297f6f8c7496a9a96b6098a33d71fe994c3175099545b604051908152602001610124565b6101866101c7366004611afa565b61057b565b6101866101da366004611afa565b6106c9565b6101ab7f65a562e555f44f9d648803e297f6f8c7496a9a96b6098a33d71fe994c317509881565b610186610214366004611afa565b61076f565b6101866107c5565b61018661022f366004611b94565b6107d9565b61023c610891565b6040516101249796959493929190611cc0565b7f9016d09d72d40fdae2fd8ceac6b6234c7706214fd39c1cd1e609a0528c199300546040516001600160a01b039091168152602001610124565b610186610297366004611d74565b610973565b6101866102aa366004611e44565b610a2c565b6101866102bd3660046119fd565b610d37565b6101866102d0366004611ac4565b610d8e565b60007fe6d7a83a000000000000000000000000000000000000000000000000000000007fffffffff000000000000000000000000000000000000000000000000000000008316148061036857507f01ffc9a7000000000000000000000000000000000000000000000000000000007fffffffff000000000000000000000000000000000000000000000000000000008316145b92915050565b6103996040518060800160405280600081526020016000815260200160008152602001600081525090565b506001600160a01b031660009081527f65a562e555f44f9d648803e297f6f8c7496a9a96b6098a33d71fe994c317509e6020908152604091829020825160808101845281548152600182015492810192909252600281015492820192909252600390910154606082015290565b61040e610e5b565b61041781610ecf565b6040805180820182524280825260208083018581526001600160a01b03871660009081527f65a562e555f44f9d648803e297f6f8c7496a9a96b6098a33d71fe994c317509f835285812094518555905180516001808701919091558184015160028701558187015160038701556060909101516004909501949094557f65a562e555f44f9d648803e297f6f8c7496a9a96b6098a33d71fe994c317509e90915292909220600901805460ff191690911790557f65a562e555f44f9d648803e297f6f8c7496a9a96b6098a33d71fe994c3175099547f65a562e555f44f9d648803e297f6f8c7496a9a96b6098a33d71fe994c3175098916105179190611f54565b8251602080850151604080870151606080890151835196875294860193909352908401528201526001600160a01b038516907f0c921d3261147841eb853457d856a68cf9e7d370b8afe283dce49bfbabd60ce89060800160405180910390a3505050565b610583610e5b565b7f65a562e555f44f9d648803e297f6f8c7496a9a96b6098a33d71fe994c317509a547f65a562e555f44f9d648803e297f6f8c7496a9a96b6098a33d71fe994c317509890156106195760405162461bcd60e51b815260206004820152601c60248201527f54544c2075706461746520616c7265616479207363686564756c65640000000060448201526064015b60405180910390fd5b600082116106695760405162461bcd60e51b815260206004820152601a60248201527f54544c206d7573742062652067726561746572207468616e20300000000000006044820152606401610610565b604080518082019091524280825260209091018390526002820181905560038201839055610698908390611f54565b604051839042907faf60dfe5b1482e7fac8808f6550999b74a4580e2cb45772963a1aa5132a7296890600090a45050565b6106d1610e5b565b60408051808201825282815242602080830182815260008681527f65a562e555f44f9d648803e297f6f8c7496a9a96b6098a33d71fe994c31750a0909252848220935184555160019093019290925591517f65a562e555f44f9d648803e297f6f8c7496a9a96b6098a33d71fe994c3175098929184917fa8deb04fe388537315fd0cbe856a2ce08ae3aa0fd63c767a7a0d746c2d08eb699190a35050565b610777610e5b565b604080518082018252600080825260208083018281529482527f65a562e555f44f9d648803e297f6f8c7496a9a96b6098a33d71fe994c31750a0905291909120905181559051600190910155565b6107cd610e5b565b6107d76000611097565b565b8760ff16600103610816576040517fe1f41dd200000000000000000000000000000000000000000000000000000000815260040160405180910390fd5b7f65a562e555f44f9d648803e297f6f8c7496a9a96b6098a33d71fe994c317509880546001600160a01b0316331461087a576040517fe7d5ea1000000000000000000000000000000000000000000000000000000000815260040160405180910390fd5b61088381611120565b505050505050505050505050565b600060608082808083817fa16a46d94261c7517cc8ff89f61c0ce93598e3c849801011dee649a6a557d10080549091501580156108d057506001810154155b61091c5760405162461bcd60e51b815260206004820152601560248201527f4549503731323a20556e696e697469616c697a656400000000000000000000006044820152606401610610565b610924611218565b61092c6112ed565b604080516000808252602082019092527f0f000000000000000000000000000000000000000000000000000000000000009c939b5091995046985030975095509350915050565b7f65a562e555f44f9d648803e297f6f8c7496a9a96b6098a33d71fe994c317509880546001600160a01b031633146109d7576040517fe7d5ea1000000000000000000000000000000000000000000000000000000000815260040160405180910390fd5b60008381526008820160205260409020600101541580610a1857506001808201546000858152600884016020526040902090910154610a169042611f67565b105b15610a2757610a27818461133e565b505050565b7ff0c57e16840df040f15088dc2f81fe391c3923bec73e23a9662efc9c229c6a00805468010000000000000000810460ff16159067ffffffffffffffff16600081158015610a775750825b905060008267ffffffffffffffff166001148015610a945750303b155b905081158015610aa2575080155b15610ad9576040517ff92ee8a900000000000000000000000000000000000000000000000000000000815260040160405180910390fd5b84547fffffffffffffffffffffffffffffffffffffffffffffffff00000000000000001660011785558315610b2457845468ff00000000000000001916680100000000000000001785555b610b2d8a6113d2565b7f65a562e555f44f9d648803e297f6f8c7496a9a96b6098a33d71fe994c31750998990557f65a562e555f44f9d648803e297f6f8c7496a9a96b6098a33d71fe994c317509880547fffffffffffffffffffffffff0000000000000000000000000000000000000000166001600160a01b038a1617815589610bf05760405162461bcd60e51b815260206004820152601a60248201527f54544c206d7573742062652067726561746572207468616e20300000000000006044820152606401610610565b60005b8851811015610cde57610c1e888281518110610c1157610c11611f7a565b6020026020010151610ecf565b878181518110610c3057610c30611f7a565b60200260200101518260060160008b8481518110610c5057610c50611f7a565b60200260200101516001600160a01b03166001600160a01b0316815260200190815260200160002060000160008201518160000155602082015181600101556040820151816002015560608201518160030155905050610cd5898281518110610cbb57610cbb611f7a565b6020026020010151836004016113e390919063ffffffff16565b50600101610bf3565b50508315610d2b57845468ff000000000000000019168555604051600181527fc7f505b2f371ae2175ee4913f4499e1f2633a7b5936321eed1cdaeb6115181d29060200160405180910390a15b50505050505050505050565b610d3f610e5b565b6001600160a01b038116610d82576040517f1e4fbdf700000000000000000000000000000000000000000000000000000000815260006004820152602401610610565b610d8b81611097565b50565b610d96610e5b565b7f65a562e555f44f9d648803e297f6f8c7496a9a96b6098a33d71fe994c3175098610dc082610ecf565b610dcd60048201846113e3565b610e195760405162461bcd60e51b815260206004820152601160248201527f416c72656164792070726f7465637465640000000000000000000000000000006044820152606401610610565b6001600160a01b039092166000908152600690920160209081526040928390208251815590820151600182015591810151600283015560600151600390910155565b33610e8d7f9016d09d72d40fdae2fd8ceac6b6234c7706214fd39c1cd1e609a0528c199300546001600160a01b031690565b6001600160a01b0316146107d7576040517f118cdaa7000000000000000000000000000000000000000000000000000000008152336004820152602401610610565b6000816040015111610f235760405162461bcd60e51b815260206004820152601b60248201527f696e5458206d7573742062652067726561746572207468616e203000000000006044820152606401610610565b806040015181602001511015610fa15760405162461bcd60e51b815260206004820152602860248201527f696e426c6f636b206d7573742062652067726561746572206f7220657175616c60448201527f20746f20696e54580000000000000000000000000000000000000000000000006064820152608401610610565b60208101518151101561101c5760405162461bcd60e51b815260206004820152602960248201527f696e446179206d7573742062652067726561746572206f7220657175616c207460448201527f6f20696e426c6f636b00000000000000000000000000000000000000000000006064820152608401610610565b805160608201511015610d8b5760405162461bcd60e51b815260206004820152602960248201527f696e546f74616c206d7573742062652067726561746572206f7220657175616c60448201527f20746f20696e44617900000000000000000000000000000000000000000000006064820152608401610610565b7f9016d09d72d40fdae2fd8ceac6b6234c7706214fd39c1cd1e609a0528c19930080547fffffffffffffffffffffffff000000000000000000000000000000000000000081166001600160a01b03848116918217845560405192169182907f8be0079c531659141344cd1fd0a4f28419497f9722a3daafe3b4186f6b6457e090600090a3505050565b600061112e826004016113ff565b905060005b8151811015610a2757600082828151811061115057611150611f7a565b6020908102919091018101516001600160a01b03811660008181526006880190935260409092209092509015611206576040517f70a082310000000000000000000000000000000000000000000000000000000081523360048201526001600160a01b038316906370a0823190602401602060405180830381865afa1580156111dd573d6000803e3d6000fd5b505050506040513d601f19601f820116820180604052508101906112019190611f90565b611209565b33315b60089091015550600101611133565b7fa16a46d94261c7517cc8ff89f61c0ce93598e3c849801011dee649a6a557d10280546060917fa16a46d94261c7517cc8ff89f61c0ce93598e3c849801011dee649a6a557d1009161126990611fa9565b80601f016020809104026020016040519081016040528092919081815260200182805461129590611fa9565b80156112e25780601f106112b7576101008083540402835291602001916112e2565b820191906000526020600020905b8154815290600101906020018083116112c557829003601f168201915b505050505091505090565b7fa16a46d94261c7517cc8ff89f61c0ce93598e3c849801011dee649a6a557d10380546060917fa16a46d94261c7517cc8ff89f61c0ce93598e3c849801011dee649a6a557d1009161126990611fa9565b600061134c836004016113ff565b90506113578361140c565b60005b81518110156113cc57600082828151811061137757611377611f7a565b602002602001015190506000856006016000836001600160a01b03166001600160a01b0316815260200190815260200160002090506113b7828288611448565b6113c2828287611525565b505060010161135a565b50505050565b6113da61160a565b610d8b81611671565b60006113f8836001600160a01b038416611679565b9392505050565b606060006113f8836116c8565b600281015415610d8b576001810154600282015461142a9042611f67565b1115610d8b5760038101805460018301556000600290920182905555565b600982015460ff1615610a27576001600160a01b03831660009081526007820160209081526040918290208251808401845281548152835160808101855260018084015482526002840154828601526003840154958201959095526004909201546060830152918201529082015481516114c29042611f67565b11156113cc5760208082018051805186558083015160018701556040808201516002880155606091820151600388015560098701805460ff1916905560008086528151608081018352818152948501819052908401819052908301525250505050565b60006001600160a01b038416156115bc576040517f70a082310000000000000000000000000000000000000000000000000000000081523360048201526001600160a01b038516906370a0823190602401602060405180830381865afa158015611593573d6000803e3d6000fd5b505050506040513d601f19601f820116820180604052508101906115b79190611f90565b6115bf565b33315b600884015490915060006115d242611724565b90506115e085848484611733565b6115eb8584846117d1565b6115f78584848761186b565b611602858484611916565b505050505050565b7ff0c57e16840df040f15088dc2f81fe391c3923bec73e23a9662efc9c229c6a005468010000000000000000900460ff166107d7576040517fd7e6bcf800000000000000000000000000000000000000000000000000000000815260040160405180910390fd5b610d3f61160a565b60008181526001830160205260408120546116c057508154600181810184556000848152602080822090930184905584548482528286019093526040902091909155610368565b506000610368565b60608160000180548060200260200160405190810160405280929190818152602001828054801561171857602002820191906000526020600020905b815481526020019060010190808311611704575b50505050509050919050565b60006103686201518083611fe3565b818310156113cc5760006117478484611f67565b600083815260048701602052604081208054929350839290919061176c908490611f54565b90915550508454600083815260048701602052604090205490808211156117c8576040517ff7699e7b00000000000000000000000000000000000000000000000000000000815260048101929092526024820152604401610610565b50505050505050565b80821015610a275760006117e58383611f67565b43600090815260058601602052604081208054929350839290919061180b908490611f54565b909155505060018401544360009081526005860160205260409020549080821115611602576040517f5a94812100000000000000000000000000000000000000000000000000000000815260048101929092526024820152604401610610565b818310156113cc57600061187f8484611f67565b60008381526006870160205260408120805492935083929091906118a4908490611f54565b90915550506002850154600083815260068701602052604090205490838183111561190c576040517f5cef2eb7000000000000000000000000000000000000000000000000000000008152600481019390935260248301919091526044820152606401610610565b5050505050505050565b80821015610a2757600061192a8383611f67565b9050808460040160030160008282546119439190611f54565b9091555050600384015460078501549080821115611602576040517f18a5067900000000000000000000000000000000000000000000000000000000815260048101929092526024820152604401610610565b6000602082840312156119a857600080fd5b81357fffffffff00000000000000000000000000000000000000000000000000000000811681146113f857600080fd5b6001600160a01b0381168114610d8b57600080fd5b80356119f8816119d8565b919050565b600060208284031215611a0f57600080fd5b81356113f8816119d8565b634e487b7160e01b600052604160045260246000fd5b604051601f8201601f1916810167ffffffffffffffff81118282101715611a5957611a59611a1a565b604052919050565b600060808284031215611a7357600080fd5b6040516080810167ffffffffffffffff81118282101715611a9657611a96611a1a565b6040908152833582526020808501359083015283810135908201526060928301359281019290925250919050565b60008060a08385031215611ad757600080fd5b8235611ae2816119d8565b9150611af18460208501611a61565b90509250929050565b600060208284031215611b0c57600080fd5b5035919050565b600082601f830112611b2457600080fd5b813567ffffffffffffffff811115611b3e57611b3e611a1a565b611b516020601f19601f84011601611a30565b818152846020838601011115611b6657600080fd5b816020850160208301376000918101602001919091529392505050565b803560ff811681146119f857600080fd5b60008060008060008060008060008060006101608c8e031215611bb657600080fd5b611bbf8c6119ed565b9a5060208c0135995060408c013567ffffffffffffffff811115611be257600080fd5b611bee8e828f01611b13565b995050611bfd60608d01611b83565b975060808c0135965060a08c0135955060c08c01359450611c2060e08d016119ed565b9350611c2f6101008d016119ed565b92506101208c013567ffffffffffffffff811115611c4c57600080fd5b611c588e828f01611b13565b925050611c686101408d016119ed565b90509295989b509295989b9093969950565b6000815180845260005b81811015611ca057602081850181015186830182015201611c84565b506000602082860101526020601f19601f83011685010191505092915050565b7fff000000000000000000000000000000000000000000000000000000000000008816815260e060208201526000611cfb60e0830189611c7a565b8281036040840152611d0d8189611c7a565b606084018890526001600160a01b038716608085015260a0840186905283810360c08501528451808252602080870193509091019060005b81811015611d63578351835260209384019390920191600101611d45565b50909b9a5050505050505050505050565b60008060408385031215611d8757600080fd5b8235915060208301358015158114611d9e57600080fd5b809150509250929050565b600067ffffffffffffffff821115611dc357611dc3611a1a565b5060051b60200190565b600082601f830112611dde57600080fd5b8135611df1611dec82611da9565b611a30565b8082825260208201915060208360071b860101925085831115611e1357600080fd5b602085015b83811015611e3a57611e2a8782611a61565b8352602090920191608001611e18565b5095945050505050565b600080600080600060a08688031215611e5c57600080fd5b8535611e67816119d8565b9450602086013593506040860135611e7e816119d8565b9250606086013567ffffffffffffffff811115611e9a57600080fd5b8601601f81018813611eab57600080fd5b8035611eb9611dec82611da9565b8082825260208201915060208360051b85010192508a831115611edb57600080fd5b6020840193505b82841015611f06578335611ef5816119d8565b825260209384019390910190611ee2565b9450505050608086013567ffffffffffffffff811115611f2557600080fd5b611f3188828901611dcd565b9150509295509295909350565b634e487b7160e01b600052601160045260246000fd5b8082018082111561036857610368611f3e565b8181038181111561036857610368611f3e565b634e487b7160e01b600052603260045260246000fd5b600060208284031215611fa257600080fd5b5051919050565b600181811c90821680611fbd57607f821691505b602082108103611fdd57634e487b7160e01b600052602260045260246000fd5b50919050565b60008261200057634e487b7160e01b600052601260045260246000fd5b50049056fea26469706673582212208d9771fa65fb34afb2711f7bc08065eb13bc07bcaecaf46efaf68e0b9c68d82364736f6c634300081c0033",
  "devdoc": {
    "author": "Peeramid labs",
    "custom:security-contact": "sirt@peeramid.xyz",
    "errors": {
      "InvalidInitialization()": [
        {
          "details": "The contract is already initialized."
        }
      ],
      "NotInitializing()": [
        {
          "details": "The contract is not initializing."
        }
      ],
      "OwnableInvalidOwner(address)": [
        {
          "details": "The owner is not a valid owner account. (eg. `address(0)`)"
        }
      ],
      "OwnableUnauthorizedAccount(address)": [
        {
          "details": "The caller account is not authorized to perform an operation."
        }
      ]
    },
    "events": {
      "EIP712DomainChanged()": {
        "details": "MAY be emitted to signal that the domain could have changed."
      },
      "Initialized(uint64)": {
        "details": "Triggered when the contract has been initialized or reinitialized."
      }
    },
    "kind": "dev",
    "methods": {
      "addProtectedAsset(address,(uint256,uint256,uint256,uint256))": {
        "params": {
          "asset": "The asset to protect",
          "policy": "The policy for the asset"
        }
      },
      "eip712Domain()": {
        "details": "See {IERC-5267}."
      },
      "getAssetPolicy(address)": {
        "params": {
          "asset": "The asset"
        },
        "returns": {
          "_0": "The policy"
        }
      },
      "getTTL()": {
        "returns": {
          "_0": "The TTL"
        }
      },
      "initialize(address,uint256,address,address[],(uint256,uint256,uint256,uint256)[])": {
        "params": {
          "_owner": "The owner of the contract",
          "_ttl": "The TTL for the contract",
          "assets": "The assets to protect",
          "policies": "The policies for the assets",
          "safe": "The Safe contract address"
        }
      },
      "owner()": {
        "details": "Returns the address of the current owner."
      },
      "renounceOwnership()": {
        "details": "Leaves the contract without owner. It will not be possible to call `onlyOwner` functions. Can only be called by the current owner. NOTE: Renouncing ownership will leave the contract without an owner, thereby disabling any functionality that is only available to the owner."
      },
      "revokePreApprovedTx(bytes32)": {
        "params": {
          "txHash": "The transaction hash"
        }
      },
      "schedulePolicyUpdate(address,(uint256,uint256,uint256,uint256))": {
        "params": {
          "asset": "The asset to update the policy for",
          "newPolicy": "The new policy"
        }
      },
      "scheduleTTLUpdate(uint256)": {
        "params": {
          "_ttl": "The new TTL"
        }
      },
      "supportsInterface(bytes4)": {
        "params": {
          "interfaceId": "The interface ID"
        },
        "returns": {
          "_0": "True if the interface is supported"
        }
      },
      "transferOwnership(address)": {
        "details": "Transfers ownership of the contract to a new account (`newOwner`). Can only be called by the current owner."
      }
    },
    "title": "Smaug",
    "version": 1
  },
  "userdoc": {
    "kind": "user",
    "methods": {
      "addProtectedAsset(address,(uint256,uint256,uint256,uint256))": {
        "notice": "Add a protected asset"
      },
      "getAssetPolicy(address)": {
        "notice": "Get the asset policy"
      },
      "getTTL()": {
        "notice": "Get the TTL"
      },
      "initialize(address,uint256,address,address[],(uint256,uint256,uint256,uint256)[])": {
        "notice": "Initialize the contract"
      },
      "revokePreApprovedTx(bytes32)": {
        "notice": "Revoke a pre-approved transaction"
      },
      "schedulePolicyUpdate(address,(uint256,uint256,uint256,uint256))": {
        "notice": "Schedule a policy update on a protected asset"
      },
      "scheduleTTLUpdate(uint256)": {
        "notice": "Schedule a TTL update"
      },
      "supportsInterface(bytes4)": {
        "notice": "Supports the ERC165 interface"
      }
    },
    "notice": "Smaug is a guard contract that protects the Safe from being drained by malicious contracts. Smaug (/sma/) is a dragon and the main antagonist in J. R. R. Tolkien's 1937 novel The Hobbit, his treasure and the mountain he lives in being the goal of the quest.",
    "version": 1
  },
  "storageLayout": {
    "storage": [],
    "types": null
  }
}